:100000000C94B2020C94CF020C94CF020C94CF0249
:100010000C94CF020C94CF020C94CF020C94CF021C
:100020000C94CF020C94CF020C94CF020C940903D1
:100030000C94CF020C94CF020C94CF020C94CF02FC
:100040000C94CF020C94CF020C94D1020C94CF02EA
:100050000C94CF020C94CF020C94CF020C94CF02DC
:100060000C94CF020C94CF0200000000003E5B4FC6
:100070005B3E3E6B4F6B3E1C3E7C3E1C183C7E3C08
:10008000181C577D571C1C5E7F5E1C00183C180016
:10009000FFE7C3E7FF0018241800FFE7DBE7FF30A6
:1000A000483A060E2629792926407F050507407F14
:1000B00005253F5A3CE73C5A7F3E1C1C08081C1C87
:1000C0003E7F14227F22145F5F005F5F06097F017D
:1000D0007F006689956A606060606094A2FFA29468
:1000E00008047E040810207E201008082A1C080836
:1000F0001C2A08081E101010100C1E0C1E0C303884
:100100003E3830060E3E0E06000000000000005F84
:1001100000000007000700147F147F14242A7F2AA0
:100120001223130864623649562050000807030062
:10013000001C2241000041221C002A1C7F1C2A08AE
:10014000083E080800807030000808080808000011
:1001500060600020100804023E5149453E00427F85
:10016000400072494949462141494D331814127FD4
:100170001027454545393C4A494931412111090774
:100180003649494936464949291E000014000000F5
:1001900040340000000814224114141414140041C7
:1001A00022140802015909063E415D594E7C121184
:1001B000127C7F494949363E414141227F414141BC
:1001C0003E7F494949417F090909013E4141517337
:1001D0007F0808087F00417F41002040413F017FA8
:1001E000081422417F404040407F021C027F7F0470
:1001F00008107F3E4141413E7F090909063E4151B9
:10020000215E7F09192946264949493203017F01A8
:10021000033F4040403F1F2040201F3F4038403FA9
:10022000631408146303047804036159494D4300BF
:100230007F4141410204081020004141417F0402F6
:10024000010204404040404000030708002054548D
:1002500078407F284444383844444428384444286B
:100260007F385454541800087E090218A4A49C78BE
:100270007F0804047800447D40002040403D007F1A
:100280001028440000417F40007C047804787C08FA
:100290000404783844444438FC18242418182424CE
:1002A00018FC7C08040408485454542404043F44B3
:1002B000243C4040207C1C2040201C3C4030403CE2
:1002C00044281028444C9090907C4464544C440042
:1002D00008364100000077000000413608000201A6
:1002E0000204023C2623263C1EA1A161123A404092
:1002F000207A38545455592155557941225454780F
:1003000042215554784020545579400C1E527212A7
:100310003955555559395454545939555454580030
:1003200000457C410002457D420001457C407D1234
:1003300011127DF0282528F07C5455450020545496
:100340007C547C0A097F4932494949323A44444441
:100350003A324A4848303A4141217A3A424020787C
:10036000009DA0A07D3D4242423D3D4040403D3C7D
:1003700024FF2424487E4943662B2FFC2F2BFF09A2
:1003800029F620C0887E0903205454794100004496
:100390007D413048484A32384040227A007A0A0A81
:1003A000727D0D19317D2629292F282629292926F4
:1003B00030484D4020380808080808080808382F39
:1003C00010C8ACBA2F102834FA00007B00000814C3
:1003D0002A142222142A1408AA005500AAAA55AAEF
:1003E00055AA000000FF00101010FF00141414FFA5
:1003F000001010FF00FF1010F010F0141414FC0097
:100400001414F700FF0000FF00FF1414F404FC14A0
:100410001417101F10101F101F1414141F00101099
:1004200010F0000000001F101010101F101010100E
:10043000F010000000FF101010101010101010FF2E
:1004400010000000FF140000FF00FF00001F101745
:100450000000FC04F414141710171414F404F4002E
:1004600000FF00F714141414141414F700F71414F4
:1004700014171410101F101F141414F4141010F07B
:1004800010F000001F101F0000001F14000000FCEF
:10049000140000F010F01010FF10FF141414FF14DB
:1004A0001010101F00000000F010FFFFFFFFFFF012
:1004B000F0F0F0F0FFFFFF0000000000FFFF0F0F63
:1004C0000F0F0F3844443844FC4A4A4A347E020233
:1004D0000606027E027E0263554941633844443C6D
:1004E00004407E201E2006027E020299A5E7A599FF
:1004F0001C2A492A1C4C7201724C304A4D4D303036
:1005000048784830BC625A463D3E494949007E0120
:1005100001017E2A2A2A2A2A44445F444440514A3F
:10052000444040444A51400000FF0103E080FF0086
:100530000008086B6B083612362436060F090F06C2
:10054000000018180000001010003040FF010100EA
:100550001F01011E00191D1712003C3C3C3C00000D
:100560000000000011241FBECFEFD8E0DEBFCDBFDA
:1005700011E0A0E0B1E0E0E2F1E502C005900D92EB
:10058000AC38B107D9F724E0ACE8B1E001C01D9266
:10059000AA3AB207E1F70E9460240C947F280C94D9
:1005A00000001F920F920FB60F9211242F933F93CA
:1005B0004F935F936F937F938F939F93AF93BF936B
:1005C000CF93EF93FF93C091C600C13471F464E6FA
:1005D00070E084E190E00E94F70C85E291E09F9347
:1005E0008F930E9487250F900F90C093C600FF91B4
:1005F000EF91CF91BF91AF919F918F917F916F912B
:100600005F914F913F912F910F900FBE0F901F90D0
:1006100018951F921FB61F9211248F939F9380915C
:100620007A048F5F80937A0490917F04992319F064
:10063000915090937F048A3039F48091870410920E
:100640007A048F5F80938704809187048A3051F405
:1006500080918804109287048F5F8093880481E0E2
:1006600080930001809188048C3339F410928804BF
:10067000809182048F5F809382049F918F911F905D
:100680001FBE1F90189581E091E09093A70480937E
:10069000A6040E94EE0390E080E00E9408052FEF80
:1006A00080E792E0215080409040E1F700C00000D8
:1006B00083E00E9442068FE99FE00197F1F700C0B6
:1006C000000070E060E080EE9FEF0E94000D70E09F
:1006D00060E090E080E00E94F70C82E00C94090D4D
:1006E0008FEF8AB95F9A209A089584B18E6284B997
:1006F00080E58CBD8DB581608DBD299A08958EBD34
:100700000DB407FEFDCF089595B19C7F95B99DE08E
:100710009A95F1F700000E947F03299A0895289A7C
:1007200092E09A95F1F700C029980E947F03299AD8
:100730000895DF92EF92FF920F931F93CF93DF9371
:10074000E82ED92ED62F172F042FF52EC22F8AE28E
:100750000E9484038D2D0E948F038E2D0E948F0393
:100760008F2D0E948F03802F0E948F038BE20E94A7
:100770008403812F0E948F038D2F0E948F038C2F63
:100780000E948F038C2F0E948F038CE2DF91CF9108
:100790001F910F91FF90EF90DF900C9484035F9A6C
:1007A0002FEF81EE94E0215080409040E1F700C0AF
:1007B00000005F982FEF81EE94E021508040904040
:1007C000E1F700C000005F9A2FEF81EE94E0215026
:1007D00080409040E1F700C0000008950E9470033F
:1007E0000E9475030E94CF0381E00E9484032FEFD3
:1007F00089E698E1215080409040E1F700C0000078
:100800008BEC0E94840389E30E948F038CE20E9498
:100810008F0380E00E948F0384E30E948F0382E0B5
:100820000E948F038FEC0E94840380E00E948F035C
:1008300081EC0E948F0380E30E948F0388EE0E9468
:10084000840385E80E948F0380E00E948F0388E77D
:100850000E948F038AEE0E94840380E00E948F032F
:1008600080E00E948F038DEE0E94840384E60E9444
:100870008F0383E00E948F0382E10E948F0381E84F
:100880000E948F0387EF0E94840380E20E948F03FF
:1008900080EC0E94840383E20E948F0381EC0E941B
:1008A000840380E10E948F0385EC0E9484038EE321
:1008B0000E948F0388E20E948F0387EC0E948403CA
:1008C00086E80E948F0386E30E94840388E40E94E6
:1008D0008F038AE30E94840385E50E948F0381EBE6
:1008E0000E94840380E00E948F0388E10E948F03AE
:1008F00086EB0E94840388E00E948F0382E80E94B6
:100900008F0387E20E948F0382EF0E94840380E0BE
:100910000E948F0386E20E94840381E00E948F037D
:1009200080EE0E9484038FE00E948F0381E30E9487
:100930008F038BE20E948F038CE00E948F038EE076
:100940000E948F0388E00E948F038EE40E948F0331
:1009500081EF0E948F0387E30E948F0387E00E944C
:100960008F0380E10E948F0383E00E948F038EE05B
:100970000E948F0389E00E948F0380E00E948F0312
:1009800081EE0E94840380E00E948F038EE00E942B
:100990008F0384E10E948F0383E00E948F0381E133
:1009A0000E948F0387E00E948F0381E30E948F03E0
:1009B00081EC0E948F0388E40E948F0388E00E94EC
:1009C0008F038FE00E948F038CE00E948F0381E3EE
:1009D0000E948F0386E30E948F038FE00E948F03A3
:1009E00081E10E9484032FEF8DEE92E02150804040
:1009F0009040E1F700C0000089E20C948403CF939B
:100A0000C82F892F0E948F038C2FCF910C948F03B6
:100A1000EF92FF920F931F93CF93DF93182F092F1D
:100A2000209113013091140140911501509116014C
:100A3000215031094150510970E060E090E080E0C0
:100A40000E949903D0E0C0E08091150190911601B9
:100A5000C817D907B8F0DF91CF911F910F91FF9080
:100A6000EF900895812F902F0E94FF048FEFE81AD6
:100A7000F80A8091130190911401E816F90690F399
:100A80002196E2CFF12CE12CF4CFCF93DF93FC0140
:100A9000D42FC52F8091150190911601E817F90701
:100AA000B0F480911301909114016817790778F4DC
:100AB0009B012F5F3F4FAF014F5F5F4FCF010E9400
:100AC00099038D2F9C2FDF91CF910C94FF04DF9120
:100AD000CF9108950F931F93CF93DF93FC01EA0109
:100AE000122F032F8091150190911601E817F90735
:100AF00018F5809113019091140168177907E0F4BB
:100B00002091130130911401CA010197860F971F9C
:100B10008217930730F0C0911301D0911401C61BC6
:100B2000D70B9B01215031092C0F3D1FAF01CF0185
:100B30000E949903219728F4DF91CF911F910F9183
:100B40000895812F902F0E94FF04F4CF0F931F93DD
:100B5000CF93DF93FC01EA01122F032F809115013F
:100B600090911601E817F90718F5809113019091FB
:100B7000140168177907E0F42091150130911601EE
:100B8000CA0101978E0F9F1F8217930730F0C09103
:100B90001501D0911601CE1BDF0BAF014150510959
:100BA0004C0F5D1F9B01CF010E949903219728F4F0
:100BB000DF91CF911F910F910895812F902F0E9467
:100BC000FF04F4CFCF92DF92EF92FF920F931F9327
:100BD000CF93DF93FC017A01E90180911501909197
:100BE0001601E817F907C0F58091130190911401DF
:100BF0006817790788F52091150130911601CA010F
:100C000001978E0F9F1F8217930730F0E090150118
:100C1000F0901601EE1AFF0A209113013091140191
:100C2000CE010197860F971F8217930730F0C0916E
:100C30001301D0911401C61BD70B9B012150310920
:100C40002C0F3D1FAF01415051094E0D5F1DCF01CB
:100C50000E9499032097A1F4DF91CF911F910F91EA
:100C6000FF90EF90DF90CF900895C8010E94FF049D
:100C700081E0C81AD108C114D104B9F72197EACF8D
:100C80006701F9CFCF93C82F86E30E948403C37016
:100C9000C23089F0C33001F188E4C13069F488E2E0
:100CA0000E948F0380E491E09093160180931501D8
:100CB00080EF90E00BC088E80E948F0380EF90E007
:100CC000909316018093150180E491E090931401B4
:100CD00080931301CF91089588EEE2CF2F923F9237
:100CE0004F925F926F927F928F929F92AF92BF923C
:100CF000CF92DF92EF92FF920F931F93CF93DF93E8
:100D000000D000D0CDB7DEB78C017B014B835C8374
:100D1000522E432E81E090E05C012B813C81A21A8F
:100D2000B30AC9019195819591099C01220F331F46
:100D30003A8329836B817C816E0D7F1D452D542D57
:100D4000C8010E944505B7018B819C81681B790B06
:100D5000452D542DC8010E944505452D542DB70140
:100D60008B819C81800F911F0E944505452D542D3C
:100D7000B701C8012B813C81821B930B0E94450562
:100D8000D12CC12C8B819C81C816D906BCF00F9048
:100D90000F900F900F90DF91CF911F910F91FF90C7
:100DA000EF90DF90CF90BF90AF909F908F907F900B
:100DB0006F905F904F903F902F900895B7FC0DC0BB
:100DC0008B819C8101979C838B8329813A812E5F43
:100DD0003F4F3A832983A20EB31E3FEFC31AD30AB3
:100DE000C601880F991F0196A80EB91E38016C0C18
:100DF0007D1C452D542D8B809C808E0C9F1CB40136
:100E0000C3010E94450518012C183D08452D542D9D
:100E1000B401C1010E944505452D542D47018B8128
:100E20009C81881A990AB401C3010E944505452D89
:100E3000542DB401C1010E94450547018C0C9D1C35
:100E4000452D542DB4016B807C80600E711EC30152
:100E50000E944505452D542DB40118012B813C817C
:100E6000221A330AC1010E94450547018C189D08CA
:100E7000452D542DB401C3010E944505452D542D27
:100E8000B401C1010E9445057DCF2F923F924F9240
:100E90005F926F927F928F929F92AF92BF92CF920A
:100EA000DF92EF92FF920F931F93CF93DF936C012A
:100EB0005B01EA0181E090E04C01841A950A662406
:100EC0007724641A750A660C771CF12CE12C822FAA
:100ED0008470582E822F8270482E822F8870382E70
:100EE0002170222EEC16FD069CF0DF91CF911F9110
:100EF0000F91FF90EF90DF90CF90BF90AF909F90B9
:100F00008F907F906F905F904F903F902F900895BB
:100F100097FC06C0219782E0680E711C860C971C16
:100F20008FEFE81AF80AC701880F991F0196880EFB
:100F3000991E552091F0A801BE016A0D7B1DC601C6
:100F40008E0D9F1D0E944505A801B5016E0D7F1DE8
:100F5000CE018C0D9D1D0E944505442091F0A801F5
:100F6000B5016C1B7D0BC6018E0D9F1D0E944505B2
:100F7000A801B5016E197F09CE018C0D9D1D0E943F
:100F80004505332091F0A801B5016E0D7F1DC60106
:100F90008C1B9D0B0E944505A801BE016A0D7B1D9F
:100FA000C6018E199F090E944505222009F49ACF97
:100FB000A801B5016E197F09C6018C1B9D0B0E940B
:100FC0004505A801B5016C1B7D0BC6018E199F0953
:100FD0000E94450587CF2F923F924F925F926F926A
:100FE0007F928F929F92AF92BF92CF92DF92EF92B9
:100FF000FF920F931F93CF93DF9300D000D0CDB714
:10100000DEB78B839C837B016A01C90109831A8344
:101010008901061B170B17FF03C0119501951109D4
:1010200046012B813C81821A930A97FE03C091945A
:1010300081949108801691065CF43C2D2D2D6C0155
:10104000832F922F3B812C81FC82EB82E32EF22EA8
:101050002B813C81C216D3065CF43E2D2F2D7C01E2
:10106000832F922F3B812C81DC82CB82C32ED22E08
:1010700016012B813C81221A330A2C014E185F087D
:1010800057FE03C0519441945108310137FE03C00B
:101090003FEF631A730A75946794E816F906D4F162
:1010A000AA24AA94BA2C2B813C81C216D306BCF484
:1010B0000F900F900F900F90DF91CF911F910F9194
:1010C000FF90EF90DF90CF90BF90AF909F908F9068
:1010D0007F906F905F904F903F902F90089549813F
:1010E0005A816B817C81C701801691061CF0B70183
:1010F0008B819C810E9445056418750877FE04C0A9
:10110000EA0CFB1C620C731C8B819C8101969C83F6
:101110008B83C9CFAA24A394B12CC5CF0F931F935F
:101120008901460F571F9A0121503109AC010E94D5
:10113000EB071F910F9108952F923F924F925F926C
:101140006F927F928F929F92AF92BF92CF92DF92D7
:10115000EF92FF920F931F93CF93DF9300D000D0B5
:10116000CDB7DEB72C015B014B835C83480181E086
:1011700090E06C014B815C81C41AD50A1A0131944C
:1011800021943108220C331C10E000E066246394A3
:10119000712C522F5170598322702A834B815C81AC
:1011A00004171507BCF00F900F900F900F90DF9170
:1011B000CF911F910F91FF90EF90DF90CF90BF9054
:1011C000AF909F908F907F906F905F904F903F90E7
:1011D0002F900895D7FC0AC08B819C8101979C8336
:1011E0008B8392E0290E311CC20CD31C0F5F1F4F62
:1011F000E2E06E0E711CC60CD71CF981FF2301F1D1
:101200004B815C81440F551F4F5F5F4F480D591D47
:101210009701B5018B819C81681B790BC201800FFE
:10122000911F0E948E089701A401460D571DB5011C
:10123000601B710B8B819C81840D951D0E948E0813
:101240009A81992309F4AACF4B815C81440F551FE1
:101250004F5F5F4F480D591D9701B501EB81FC8130
:101260006E1B7F0BC201801B910B0E948E089701A1
:10127000A301480D591DB501601B710BC201EB8123
:10128000FC818E1B9F0B0E948E0888CFAF92BF926D
:10129000CF92DF92EF92FF920F931F93CF93DF9342
:1012A0006C015B01EA017901440F551F4F5F5F4FED
:1012B0006C1B7D0BC6010E946A0510E000E023E074
:1012C000AE01B501C6010E949C08DF91CF911F912C
:1012D0000F91FF90EF90DF90CF90BF90AF90089567
:1012E0000F931F938901480F591F415051099B01CA
:1012F0000E94EB071F910F910895AF92BF92CF927A
:10130000DF92EF92FF920F931F93CF93DF93EC0145
:101310007B015A01690198010E947009B7016C0DA7
:101320007D1D615071099801A501CE010E947009CF
:101330009801A601B701CE010E948E08CE018A0D48
:101340009B1D9801A601B7010197DF91CF911F91D5
:101350000F91FF90EF90DF90CF90BF90AF900C94E3
:101360008E08AF92BF92CF92DF92EF92FF920F93CF
:101370001F93CF93DF93D62EC72EB22EA32EEC0150
:101380007C01E40EF51ECE15DF055CF0DF91CF91F8
:101390001F910F91FF90EF90DF90CF90BF90AF9093
:1013A000089598014B2D5A2D6D2D7C2DCE010E9454
:1013B0008E082196E8CF2F923F924F925F926F92C4
:1013C0007F928F929F92AF92BF92CF92DF92EF92D5
:1013D000FF920F931F93CF93DF9300D000D0CDB730
:1013E000DEB75C016B011A0129010B831C830B81A1
:1013F0001C81000F111F3A01601A710A8B809C80BA
:101400008A0C9B1C9701A301C4010E947009C601AC
:10141000840D951D9A838983BC01615071099701E0
:10142000A301C4010E947009401A510A8B819C815A
:10143000C80ED91E9701A201B601C5010E948E08EF
:10144000A20CB31C9701A201B601C50101970E942D
:101450008E08870121E04B815C81B601C4010E94A6
:1014600045078B819C81A81AB90A91E0A91AB10895
:1014700022E04B815C81B601C5010E944507C9800D
:10148000DA808B819C81C81AD90A91E0C91AD108E7
:1014900024E04B815C81B601C5010E94450728E02C
:1014A0004B815C81B601C4010E9445070F900F90EB
:1014B0000F900F90DF91CF911F910F91FF90EF90C0
:1014C000DF90CF90BF90AF909F908F907F906F9064
:1014D0005F904F903F902F9008952F923F924F92A0
:1014E0005F926F927F928F929F92AF92BF92CF92B4
:1014F000DF92EF92FF920F931F93CF93DF931C0124
:101500005B012A01E901680137017801EE0CFF1C3B
:101510004801820C931C4E195F098301C4010E948B
:10152000B109CE19DF092197AC0CBD1C420C531C2C
:10153000C2018C199D0973018E0121E0A601B5013C
:1015400001970E949C0822E0A601B501C4010E94F7
:101550009C08DF91CF911F910F91FF90EF90DF904A
:10156000CF90BF90AF909F908F907F906F905F9043
:101570004F903F902F9008952F923F924F925F92FD
:101580006F927F928F929F92AF92BF92CF92DF9293
:10159000EF92FF920F931F93CF93DF9300D000D071
:1015A00000D00F92CDB7DEB72C013B015A01690183
:1015B00009831A83ED822F2CC901079697FD0796A0
:1015C0009C0193E0359527959A95E1F73C832B8311
:1015D000F12CE12C312C10E000E029813A81021736
:1015E00013070CF448C027960FB6F894DEBF0FBE61
:1015F000CDBFDF91CF911F910F91FF90EF90DF90C2
:10160000CF90BF90AF909F908F907F906F905F90A2
:101610004F903F902F9008958E819F8187709927DA
:10162000330C892B61F4EE81FF8183E0F595E7951A
:101630008A95E1F7EE0DFF1DEA0DFB1D349037FE94
:1016400009C04D81522DB4018E819F81840D951D5D
:101650000E9445058E819F8101969F838E832E81F6
:101660003F812C153D05C4F20F5F1F4F8B819C817C
:10167000E80EF91EB2CF1F821E824301800E911E1A
:10168000EECF2F923F924F925F926F927F928F9206
:101690009F92AF92BF92CF92DF92EF92FF920F9301
:1016A0001F93CF93DF9300D000D00F92CDB7DEB75A
:1016B0003C015A01690109831A83EB822F2C8B01AB
:1016C000290187E0480E511C57FE04C029019EE005
:1016D000490E511C93E0559447949A95E1F7912C4B
:1016E000812C312CF12CE12C89819A81E816F906A4
:1016F0000CF448C00F900F900F900F900F90DF9157
:10170000CF911F910F91FF90EF90DF90CF90BF90FE
:10171000AF909F908F907F906F905F904F903F9091
:101720002F9008958C819D81877099273694892BFD
:1017300061F4EC81FD8183E0F595E7958A95E1F709
:10174000E80DF91DEA0DFB1D349030FE09C04B81F8
:10175000522DB8018C819D81860D971D0E944505F3
:101760008C819D8101969D838C838C819D818C15BC
:101770009D05C4F29FEFE91AF90A0F5F1F4F840C11
:10178000951CB2CF1D821C82F0CF80919F04909156
:10179000A00490939A048093990480918D04909171
:1017A0008E049093980480939704089580919F04E9
:1017B0009091A004909394048093930480918D045D
:1017C00090918E0490939C0480939B040895809143
:1017D0009F049091A0049093960480939504809127
:1017E0008D0490918E049093A3048093A204089595
:1017F00080919F049091A0049093900480938F0413
:1018000080918D0490918E04909392048093910422
:1018100008952F923F924F925F926F927F928F9294
:101820009F92AF92BF92CF92DF92EF92FF920F936F
:101830001F93CF93DF93CDB7DEB729970FB6F894F8
:10184000DEBF0FBECDBF6B01190109831A838887E4
:10185000998780911501909116012885398528175F
:10186000390708F068C0809113019091140168173E
:10187000790708F060C0C90136E0E39E800D911D34
:101880001124181619060CF056C08E2D90E09D8379
:101890008C83E8E0EE9EC0011124860F971F181676
:1018A00019060CF048C0F5E04F9FA00111249A01E1
:1018B00028593F4F3F832E83688479841B825C8044
:1018C0004D803B81F12C353019F0EE81FF81F49091
:1018D0004601B12CA12CF0FE47C0F1E0A10181012D
:1018E000EF1250C0B6016A0D7B1DC3010E94450571
:1018F000F6948FEFA81AB80AEC81FD818E0E9F1E18
:10190000F8E0AF16B10439F72B812F5F2B83888560
:101910009985EC81FD818E0F9F1F99878887FFEF46
:101920006F1A7F0A2E813F812F5F3F4F3F832E83A7
:101930003B81363031F629960FB6F894DEBF0FBEE4
:10194000CDBFDF91CF911F910F91FF90EF90DF906E
:10195000CF90BF90AF909F908F907F906F905F904F
:101960004F903F902F90089529813A812215330599
:1019700009F4BECF31E009811A81E31203C0498125
:101980005A81B0CF252D342D452D542DB401888595
:1019900099850E94E205ACCFEF920F931F93482FD9
:1019A000E090A10400918B0410918C0420919D047F
:1019B00030919E0460918D0470918E0480919F04FB
:1019C0009091A0040E94090C2091A10480919F0491
:1019D0009091A00436E0239F800D911D11249093D7
:1019E000A00480939F041F910F91EF90089590930E
:1019F000A00480939F0470938E0460938D040895D7
:101A000090939E0480939D0470938C0460938B0448
:101A10000895893028F4811101C081E08093A104E8
:101A200008958A30A9F48091A10420918D04309109
:101A30008E0448E0849FC0011124820F931F90936D
:101A40008E0480938D041092A00410929F04089538
:101A50008D3011F00C94CC0C08950E94110D81E092
:101A600090E008958F929F92AF92BF92DF92EF9293
:101A7000FF920F931F93CF93DF9387E191E09093B1
:101A8000A7048093A60404E010E01093A004009340
:101A90009F0410938E0400938D048FE99FE00197BB
:101AA000F1F700C0000080EE97E090939E048093D1
:101AB0009D0410928C0410928B048FE99FE0019793
:101AC000F1F700C00000C2E0C093A1048FE99FE0DD
:101AD0000197F1F700C000008EE391E09F938F9390
:101AE0000E9487258FE99FE00197F1F700C0000071
:101AF00080E098EF90939E0480939D0410928C0454
:101B000010928B048FE99FE00197F1F700C000006D
:101B1000C093A1048FE99FE00197F1F700C0000096
:101B200086E491E09F938F930E9487258FE99FE041
:101B30000197F1F700C000001093A00400939F04E8
:101B400088E2A82EB12CB0928E04A0928D048FE969
:101B50009FE00197F1F700C000008FEF97E09093AE
:101B60009E0480939D0410928C0410928B048FE944
:101B70009FE00197F1F700C00000D4E0D093A104EA
:101B80008FE99FE00197F1F700C0000086E50E9411
:101B9000CC0C8FE99FE00197F1F700C00000809125
:101BA0008D0490918E04069690938E0480938D04FC
:101BB000C3E0C093A1048FE99FE00197F1F700C053
:101BC000000087E591E00E949D258FE99FE0019745
:101BD000F1F700C0000080918D0490918E040C9666
:101BE00090938E0480938D040E94C50B8BE591E049
:101BF0009F938F930E9487258FE99FE00197F1F7CC
:101C000000C000001093A00400939F0498E7892E61
:101C1000912C90928E0480928D048FE99FE0019721
:101C2000F1F700C00000D093A1048FE99FE0019775
:101C3000F1F700C0000086E50E94CC0C8FE99FE020
:101C40000197F1F700C0000080918D0490918E04FF
:101C5000069690938E0480938D04C093A1048FE91F
:101C60009FE00197F1F700C0000082E691E00E943A
:101C70009D258FE99FE00197F1F700C000000E94C9
:101C8000D60B25E0D22ED092A1040AE611E01F93D4
:101C90000F930E9487258FE99FE00197F1F700C01D
:101CA000000034EAE32EF12CF092A004E0929F04AD
:101CB000B0928E04A0928D048FE99FE00197F1F716
:101CC00000C0000080EE9FEF90939E0480939D04DF
:101CD00010928C0410928B048FE99FE00197F1F72A
:101CE00000C00000D093A1048FE99FE00197F1F7B5
:101CF00000C0000089E40E94CC0C8FE99FE00197AE
:101D0000F1F700C0000080918D0490918E0406963A
:101D100090938E0480938D04C093A1048FE99FE07B
:101D20000197F1F700C0000087E591E09F938F9342
:101D30000E9487258FE99FE00197F1F700C000001E
:101D4000F092A004E0929F0480918D0490918E0403
:101D5000849690938E0480938D040E94E70BC09329
:101D6000A10480E791E09F938F930E9487258FE9DC
:101D70009FE00197F1F700C00000F092A004E0920C
:101D80009F0490928E0480928D048FE99FE00197CA
:101D9000F1F700C00000D093A1048FE99FE0019704
:101DA000F1F700C0000089E40E94CC0C8FE99FE0AD
:101DB0000197F1F700C0000080918D0490918E048E
:101DC000069690938E0480938D04C093A1048FE9AE
:101DD0009FE00197F1F700C0000087E791E09F9333
:101DE0008F930E9487258FE99FE00197F1F700C04C
:101DF0000000F092A004E0929F040E94F80B8091F2
:101E00008D0490918E04C09690938E0480938D04DF
:101E1000D092A1041F930F930E9487259FEF23ED7B
:101E200080E3915020408040E1F700C000008DB772
:101E30009EB740960FB6F8949EBF0FBE8DBFDF9140
:101E4000CF911F910F91FF90EF90DF90BF90AF90D7
:101E50009F908F90089588E98093C10086E08093D9
:101E6000C2001092C50083E38093C400089590914E
:101E7000C00095FFFCCF8093C6000895CF93DF93F9
:101E8000EC018991811103C0DF91CF9108950E94E7
:101E9000370FF7CFCF93DF93CDB7DEB72A970FB6C3
:101EA000F894DEBF0FBECDBF4AE0BE016F5F7F4F2B
:101EB00090E00E946225CE0101960E943E0F2A9674
:101EC0000FB6F894DEBF0FBECDBFDF91CF9108955E
:101ED000CF93DF93CDB7DEB72A970FB6F894DEBF66
:101EE0000FBECDBF4AE0BE016F5F7F4F0E946D25E0
:101EF000CE0101960E943E0F2A960FB6F894DEBFDF
:101F00000FBECDBFDF91CF9108958EBD0DB407FEFA
:101F1000FDCF8DB58F778DBD08958FEF8EBD0DB43C
:101F200007FEFDCF8DB58F778DBD8EB50895FF92DD
:101F30000F931F93CF93DF93C82FD42F152F062F06
:101F4000F72E0E948D0F8C2F80640E94850F8F2D9D
:101F50000E94850F802F0E94850F812F0E94850F80
:101F60008D2F0E94850F85E9CC2321F087E8C830AA
:101F700009F08FEF0E94850FCAE00E948D0F8F3FFE
:101F800011F4C150D1F7DF91CF911F910F91FF90C4
:101F9000089583B18095881F8827881F089586B18A
:101FA00085FB882780F991E089270895CF93DF93F7
:101FB00000D000D0CDB7DEB78091B10181111CC037
:101FC0008091B2019091B301A091B401B091B5019B
:101FD00020E032E046EB51E0BC01CD010E948411CB
:101FE000882319F081E08093B1010F900F900F903A
:101FF0000F90DF91CF91089581E0F7CF2F923F921C
:102000004F925F926F927F928F929F92AF92BF9208
:10201000CF92DF92EF92FF920F931F93CF93DF93B4
:1020200000D000D0CDB7DEB76B017C014A011901A9
:102030002114310411F481E030C0560181E0B8224E
:10204000260137014A185B086108710880E092E0B8
:102050008A199B093C822B828215930510F49C837C
:102060008B838091B2019091B301A091B401B091A2
:10207000B50184159505A605B70509F45CC00E9455
:10208000D60F882351F02E98B301A20181E10E945E
:10209000970F8823C9F02E9A80E00F900F900F9031
:1020A0000F90DF91CF911F910F91FF90EF90DF90F4
:1020B000CF90BF90AF909F908F907F906F905F90E8
:1020C0004F903F902F9008950E948D0F8E3FE1F723
:1020D00006EB11E01A8309830F5F1F4F0E948D0FDB
:1020E000E981FA818083F3E0063B1F0799F740926C
:1020F000B2015092B3016092B4017092B501B50182
:102100006A547E4F4B815C81C4010E9416258B81ED
:102110009C81880E991E0E948D0F0E948D0F2E9A11
:102120000E948D0F8B819C81281A390AC80ED91EF6
:10213000E11CF11C7DCFB5016A547E4F4B815C815F
:10214000C4010E941625EB81FC818E0E9F1EEACFF2
:102150000F931F93CF9327983D98239A259A269AF9
:1021600024982E9A83E58CBD8DB58E7F8DBD1092FF
:10217000B0011F9950C0CAE00E948D0FC150E1F715
:102180002E9800E012E040E050E0BA0180E00E94AA
:10219000970F813049F001501109A9F72E9A8C2F21
:1021A000CF911F910F91089540E050E0BA0187E36D
:1021B0000E94970F40E050E0BA0189E20E94970F19
:1021C00082FD05C08091B00181608093B00100E084
:1021D00010E88091B001837040E050E0BA0179F0DE
:1021E00087E30E94970F40E050E0BA0189E20E9425
:1021F000970F80FF06C00150110959F7CFCF81E03A
:10220000F6CF40E052E060E070E080E10E94970F7E
:102210002E9A882311F0C0E0C2CF8CB58C7F8CBD84
:102220008DB581608DBD8FEF9FEFDC018093B20192
:102230009093B301A093B401B093B50181E0809372
:10224000B10120E032E046EB51E060E070E0CB010C
:102250000E94FE0FC1E08111A2CFDDCF2F923F92ED
:102260004F925F926F927F928F929F92AF92BF92A6
:10227000CF92DF92EF92FF920F931F93CF93DF9352
:102280002B013C015A01E901480187013C2C2D2C0E
:10229000452B31F1209721F18216930608F1EF28A2
:1022A000F9F06901F12CE12C9E01A501C301B201F5
:1022B0000E94FE0F8823A1F0232D322DB301A2012D
:1022C000C501F8010995882349F04C0C5D1C6E1C72
:1022D0007F1C8C1A9D0A8C169D0630F781E001C088
:1022E00080E0DF91CF911F910F91FF90EF90DF90F1
:1022F000CF90BF90AF909F908F907F906F905F90A6
:102300004F903F902F9008952F923F924F925F925F
:102310006F927F928F929F92AF92BF92CF92DF92F5
:10232000EF92FF920F931F93CF93DF9300D00F9202
:10233000CDB7DEB76B017C014A012A833B830E9443
:10234000CF0F8983882309F464C0198289810F9093
:102350000F900F90DF91CF911F910F91FF90EF9011
:10236000DF90CF90BF90AF909F908F907F906F90B5
:102370005F904F903F902F90089520E032E046EB21
:1023800051E0C301B2010E94FE0F811176C0DDCF82
:10239000A801B401C5018A549E4F0E9416251092CF
:1023A000B1018A819B812816390608F474C091E036
:1023B0009983CCCF8EEF0E94850F86EBA82E81E00B
:1023C000B82EF5018FEFA81AB80A80810E94850FF8
:1023D00096EBA91693E0B906A1F78FEF0E94850F3F
:1023E0008FEF0E94850F0E948D0F8F3FE1F70E94B3
:1023F0008D0F2E9A800E911EC00ED11EE11CF11C75
:102400008A819B81801B910B9B838A8391E09093AF
:10241000B1018A819B81892B51F2560181E0B8225A
:10242000260137014A185B0861087108212C92E0E7
:10243000392E2A183B0881018A819B8182159305D8
:1024400008F48C018091B2019091B301A091B40184
:10245000B091B501481659066A067B06B1F00E9494
:10246000D60F882309F471CFA114B10409F085CFE8
:10247000011592E0190709F080CF4092B201509205
:10248000B3016092B4017092B50186EB881681E0C9
:10249000980609F07DCF2E98B301A20188E10E9431
:1024A000970F882309F486CF2E9A50CF4F925F92D0
:1024B0006F927F928F929F92AF92BF92CF92DF9254
:1024C000EF92FF920F931F93CF93DF932B013C0169
:1024D0006A0159014801452B91F480E0DF91CF91C9
:1024E0001F910F91FF90EF90DF90CF90BF90AF9032
:1024F0009F908F907F906F905F904F90089589018B
:102500008114910451F3A114B10419F001151105BE
:1025100049F09701B301A201C601F4010995EC014C
:10252000009711F481E0DACFA114B10419F0081773
:10253000190798F29E01A601C301B2010E948411FD
:10254000882359F24C0E5D1E611C711C0C1B1D0B67
:10255000DACF8F929F92AF92BF92EF92FF920F933A
:102560001F93CF93DF93EC01892B91F01F9910C03B
:1025700089E1FE0111928A95E9F72E9840E050E03A
:10258000BA018AE00E94970FF82E882319F02E9A3C
:10259000F12C24C00E948D0F8E3FE1F710E000E087
:1025A00048EFE42E0E948D0F482FE02F0F3030F4BB
:1025B000F0E0EF57F74D0C94F62488830F5F1F4F20
:1025C0000231110579F740E050E0BA0189E00E943C
:1025D000970F082F882309F445C02E9A8F2DDF917D
:1025E000CF911F910F91FF90EF90BF90AF909F9070
:1025F0008F900895FE01E00FF11F8083DFCFFE0171
:10260000E00FF11F8183DACF8A87D8CF50E070E0E6
:1026100060E02E2D2003C001219F900D1124805ACF
:102620009F4F04C0440F551F661F771F8A95D2F72E
:102630008B859C85AD85BE85842B952BA62BB72BD2
:102640008B879C87AD87BE87B9CF4295407F4F87E8
:10265000B5CF982F92959F708F85892B8F874F705C
:10266000488BACCF0E948D0F8E3FE1F710E0E12C3C
:10267000812C912C5401FF24F3940E948D0F11237F
:1026800089F01E30B1F4282F30E086FDFD8A85FDEB
:10269000FE8A84FDFF8AC901959587959595879552
:1026A0008370888F1F5F123141F72E9AFF24F394B5
:1026B00095CF1830D1F148F4163029F1173061F177
:1026C000153081F78F70E82EEDCF1930C9F11A302F
:1026D00049F7881F8827881F082B402F4E0D552744
:1026E000551FCA010296A501940104C0220F331F91
:1026F000441F551F8A95D2F7DA01C901898B9A8B3D
:10270000AB8BBC8BCFCF837090E0B0E0A0E088248F
:10271000982EA92EBA2EC6CF882A82E0880C991C42
:10272000AA1CBB1C8A95D1F7BDCF8295869586954C
:102730008370882A3FEF831A930AA30AB30AB2CFA1
:10274000880F082F0670AECF9F92AF92BF92CF92A4
:10275000DF92EF92FF920F931F93CF93DF93CDB74A
:10276000DEB764970FB6F894DEBF0FBECDBF7C0115
:102770006B01942EA52EB22E132F892BA1F490E07D
:1027800080E064960FB6F894DEBF0FBECDBFDF9138
:10279000CF911F910F91FF90EF90DF90CF90BF905E
:1027A000AF909F900895672B51F3043044F707FFD3
:1027B0003BC08091BE038111E2CFEEEBF3E089E0F4
:1027C000DF011D928A95E9F7F092B703E092B60314
:1027D000D092B903C092B8039092BA03A092BB03FF
:1027E000B092BC031093BD0307FD3EC08D81809362
:1027F000BE03CE0109960E9442246093BF037093EA
:10280000C0038093C1039093C203CE010D960E9432
:1028100042246093C3037093C4038093C5039093D1
:10282000C60386EB93E0ADCF20E10202C001112484
:1028300082549E4F9C01990F440B550B298B3A8B68
:102840004B8B5C8B20E130E0AE014F5F5F4F6989BD
:102850007A898B899C89F7010995882309F48FCFA0
:102860008D818111A6CF8BCF8FEF8093BE03D9CFFF
:10287000FC01892B19F0108681E0089580E008950D
:1028800080E190E008959C01FC018191255F3F4F1C
:1028900080FB879587F99191890F2E173F07C1F724
:1028A0000895CF92DF92EF92FF920F931F93CF93F1
:1028B000DF937C01E901CA80DB8010E000E0C70102
:1028C000800F911F0C151D0550F081E0DF91CF9115
:1028D0001F910F91FF90EF90DF90CF9008950E948D
:1028E0003E24892B29F488819981019699838883D4
:1028F0000E5F1F4FE4CF8F929F92AF92BF92CF9205
:10290000DF92EF92FF920F931F93CF93DF93CDB798
:10291000DEB72D970FB6F894DEBF0FBECDBF7C019A
:102920004A015B016901D9010D911C911197129621
:102930008D919C911397809613969C938E931297EA
:10294000F7018081853E11F0811117C0D6011496E0
:102950001C9281E02D960FB6F894DEBF0FBECDBF5E
:10296000DF91CF911F910F91FF90EF90DF90CF906B
:10297000BF90AF909F908F90089583858F3009F01E
:1029800045C014968C91882319F095858917B1F06C
:102990008BE2F80111928A95E9F7D7011D968C9187
:1029A000F6018483D80197968C92979798969C927B
:1029B00098979996AC9299979A96BC92F701208134
:1029C0002F732150330B4DE0429FC001439F900D68
:1029D0001124EEE7F1E0DE01119601900D924A9587
:1029E000E1F7FE0131962DE0280F8F31910508F0B7
:1029F000B0CFA191AE0DBF2DB11D3C91D801A80F54
:102A0000B91F3C9301962813F0CFA3CFD8018C9126
:102A1000882341F0C7010E944314F601948198175E
:102A200009F45CC08BE2D8011D928A95E9F7F801A0
:102A300087A290A6A1A6B2A69701B801E0E0D901AD
:102A40008D919D018032B9F0DB018C93D7011C96EA
:102A50009C9193FF0BC0A90141505109DA019C914F
:102A600091549A3118F4805EDB018C93EF5F6F5FB5
:102A70007F4FE83021F7D8018C91853011F485EE35
:102A80008C93D70118968C91803221F1D801AE0F2A
:102A9000B11D8EE28C93B701685F7F4F94E09E0F6B
:102AA000EF5FDB018D91BD0198012E0F311D80324A
:102AB00089F0D9018C93D7011C964C9144FF07C033
:102AC0004FEB480F4A3118F4805ED9018C93EF5FC9
:102AD000E913E7CFE00FF12FF11D1082F701838595
:102AE000D80190968C93C7014A960E943E24F80123
:102AF00092A381A3C7014C960E944224D8019396C9
:102B00006D937D938D939C93969781E0F6018583D9
:102B100080E020CF0F931F93CF93DF9300D000D09E
:102B200000D0CDB7DEB7FC01CB01309789F1623020
:102B3000710570F1B0E0A0E0880F991FAA1FBB1FBC
:102B400046815781608571858C019D01040F151F99
:102B5000261F371F0B831C832D833E830190F0813A
:102B6000E02D0190F081E02D22E030E0AE014F5FDA
:102B70005F4F6B817C818D819E810995882341F017
:102B800089819A819C01215031092F3E3F4F10F0DD
:102B900090E080E026960FB6F894DEBF0FBECDBF62
:102BA000DF91CF911F910F910895AF92BF92CF9275
:102BB000DF92EF92FF920F931F93CF93DF9300D09A
:102BC00000D000D0CDB7DEB78C015B01009709F4CF
:102BD00066C06230710508F462C0DC011696CD90C3
:102BE000DD90ED90FC901997C501B0E0A0E0880F52
:102BF000991FAA1FBB1F9C01AD012C0D3D1D4E1D31
:102C00005F1D2B833C834D835E83D801ED91FC9146
:102C10000190F081E02D22E030E0AE014F5F5F4F88
:102C20006B817C818D819E810995882339F1A980F2
:102C3000BA80A114B10409F1C5014096089778F152
:102C4000B8EFAB16BFEFBB0610F0B12CA12C1A8267
:102C50001982D801ED91FC910480F581E02D22E0EC
:102C600030E0AE014F5F5F4F6B817C818D819E8133
:102C70000995A114B10409F0B7CF81E026960FB6EB
:102C8000F894DEBF0FBECDBFDF91CF911F910F91A2
:102C9000FF90EF90DF90CF90BF90AF90089580E0CD
:102CA000EDCF2F923F924F925F926F927F928F92D1
:102CB0009F92AF92BF92CF92DF92EF92FF920F93CB
:102CC0001F93CF93DF93CDB7DEB72C970FB6F89451
:102CD000DEBF0FBECDBF8C011B014A010097E1F49E
:102CE000D12CC12CC6012C960FB6F894DEBF0FBEB6
:102CF000CDBFDF91CF911F910F91FF90EF90DF90AB
:102D0000CF90BF90AF909F908F907F906F905F908B
:102D10004F903F902F900895DC01ED91FC91119719
:102D2000208131813A8729874481558158874F8393
:102D300016964D905D906D907C9019975A96ED90F7
:102D4000FC905B971A96AD90BD90CD90DC901D974E
:102D5000D694C794B794A794BC86AB865B961C9216
:102D60001E925A97D12CC12CA114B10419F48928B0
:102D7000D1F175C052E0E516F10428F08B859C85F1
:102D8000E816F90618F042E0E42EF12CC701B0E095
:102D9000A0E0880F991FAA1FBB1F9C01AD01240D45
:102DA000351D461D571D2B833C834D835E8322E0DA
:102DB00030E0AE014F5F5F4F6B817C818D819E81E2
:102DC000E985FA850995882309F48ACF89819A8152
:102DD000892B09F050C08114910461F5D8015B96EC
:102DE000FC92EE925A9742E02416310408F47ACF0E
:102DF000DA82C982C101B0E0A0E0880F991FAA1F42
:102E0000BB1F9C01AD01240D351D461D571D2B8395
:102E10003C834D835E8322E030E0AE014F5F5F4F25
:102E20006B817C818D819E81EF81F8850995882356
:102E3000B1F058CFC114D104B9F4EFEFFFEFFA832A
:102E4000E98322E030E0AE014F5F5F4F6B817C8110
:102E50008D819E81EF81F8850995811108C0B601A9
:102E6000C8010E94D5153CCFDA82C982EACFF1E0D1
:102E70008F1A9108670121E0A21AB1083FEFE31A07
:102E8000F30A72CFCF93DF9300D000D0CDB7DEB777
:102E9000FC019B01892B41F16230710528F1225020
:102EA0003109A089B1890E94FC2469837A838B83CC
:102EB0009C8382899389A489B58929813A814B8130
:102EC0005C81280F391F4A1F5B1F29833A834B837C
:102ED0005C8369817A818B819C810F900F900F9028
:102EE0000F90DF91CF91089519821A821B821C8264
:102EF000F0CFEF92FF920F931F93CF93DF93CDB755
:102F0000DEB760970FB6F894DEBF0FBECDBF8C0161
:102F10006230710528F10E944217AE014F5F5F4F8A
:102F200020E1DA011D922A95E9F7F801208931891B
:102F30000190F081E02D0680F781E02DF12CE12C4D
:102F400000E414E1099560960FB6F894DEBF0FBE59
:102F5000CDBFDF91CF911F910F91FF90EF9008951A
:102F600080E0F1CF4F925F926F927F928F929F920B
:102F7000AF92BF92CF92DF92EF92FF920F931F9387
:102F8000CF93DF9300D000D00F92CDB7DEB78C0186
:102F90009B01FA0101900020E9F7CF01841B950BFA
:102FA0000B966DE070E00E94AC2488248394860E1A
:102FB000D901AD90BC90A114B10409F064C0F8012E
:102FC00046885788608C718C228933894489558959
:102FD0002A833B834C835D8373016201912C2A8198
:102FE0003B814C815D81C216D306E406F50609F0EB
:102FF0006AC0A114B10409F48DC0CD28CE28CF2811
:1030000009F44AC0B501C8010E948A15009709F069
:1030100042C041E050E0B501C8010E945116AC0128
:10302000009709F477C09C0122503109F801A0896A
:10303000B1890E94FC246A837B838C839D834288B0
:10304000538864887588460E571E681E791EBA011B
:10305000C8010E947917C301B2010F900F900F9021
:103060000F900F90DF91CF911F910F91FF90EF90F4
:10307000DF90CF90BF90AF909F908F907F906F9098
:103080005F904F9008951A821B821C821D82412CF2
:10309000512C3201A1CF5C01B501C8010E94421739
:1030A0006B017C01D80150968D919C91A7019601EE
:1030B000280F391F411D511D2A833B834C835D839B
:1030C00026013701912CD801ED91FC910190F081FE
:1030D000E02D21E030E0AE014F5F5F4FC701B60148
:1030E00009958823B9F08981853E11F081110AC0C4
:1030F0009394981408F0AFCFB0E2CB0ED11CE11C32
:10310000F11C6DCF26013701E0E24E0E511C611C0F
:10311000711C62CF412C512C32019DCF4F925F9296
:103120006F927F929F92AF92BF92CF92DF92EF9277
:10313000FF920F931F93CF93DF93CDB7DEB7A49782
:103140000FB6F894DEBF0FBECDBFFC018B01892BFB
:1031500009F434C16115710509F430C10190F081A1
:10316000E02DA480B580DB0197964D905D906D9029
:103170007C909A97FB0101900020E9F731976F014D
:10318000C61AD70AEC2CC60199270C966DE070E0A0
:103190000E94C024F62E4BE050E060E270E0CE01C9
:1031A00001960E941F256EE270E0C8010E9457251B
:1031B000BC010097C9F0FC0181818823A9F06F5FF1
:1031C0007F4FFB0101900020E9F73197E61BF70BD9
:1031D000CA94EC2CEE1AE43008F0E3E04E2F50E0F5
:1031E000CE0109960E941625F8E0FE1508F481C06C
:1031F0004E2D50E0B801CE0101960E941625D8014F
:103200008C918E3251F411968C9111978E3211F46B
:1032100012968C91882309F487C08981853E11F428
:1032200085E08983FE013D9684E1DF011D928A9548
:10323000E9F7F80180A18C8761A172A1CE014B96BC
:103240000E945624D80193964D915D916D917C9189
:103250009697CE014D960E945A24CF2CD12CB0E2E5
:10326000FB9EC0011124A3019201280F391F411DAB
:10327000511D29A33AA34BA35CA320E230E0AE0189
:103280004F5F5F4F69A17AA18BA19CA1F5010995C0
:103290008823C9F0CE0101960E944314982EF1E0D4
:1032A000CF1AD1082DE02C9DC0012D9D900D112429
:1032B000080F191FEF2CDF2C6894D6F88FE0C82E6A
:1032C000E11034C081E0A4960FB6F894DEBF0FBEC3
:1032D000CDBFDF91CF911F910F91FF90EF90DF90C5
:1032E000CF90BF90AF909F907F906F905F904F90E6
:1032F000089586E0F801DE01119601900D928A95FD
:10330000E1F7F80181A1982F92959F70803A40F4DF
:10331000905D9F838F708A3028F4805D88877DCF91
:103320009F59F7CF8F59FACFF12C77CF40E250E079
:103330006FEF70E0CE0101960E941F25F80191E029
:1033400041E0490F819121E030E02C0F3D1F290F12
:10335000311DD9018C939E5FA1E0B0E0AC0FBD1F81
:10336000A40FB11D1C929B3019F19A3119F1DF01A4
:1033700011978C91882311F09F3110F3FE14E1F026
:10338000E982CC869E861D861B8E1C8E20E230E054
:10339000AE014F5F5F4FC301B201F5010995F0E245
:1033A0004F0E511C611C711CEA940D50110988CFFD
:1033B0009EE0DDCF9CE1DBCFD982E3CF80E083CFFD
:1033C0002F923F924F925F926F927F928F929F9235
:1033D000AF92BF92CF92DF92EF92FF920F931F9323
:1033E000CF93DF93CDB7DEB7AE970FB6F894DEBFBD
:1033F0000FBECDBF8C01009709F46BC1DC011496A0
:103400008D919C911597892B59F016968D919C91D1
:10341000892B31F080915C0490915D04892B91F0AF
:1034200010E000E056C110925D0410925C04F8CFE9
:103430008BE0D80118968C93BAC082E090E0A0E0AF
:10344000B0E0F5C0EEE5F4E08AE1DF011D928A9577
:10345000E9F710935D0400935C04F8014184528401
:103460006384748489E0440C551C661C771C8A951F
:10347000D1F7A3019201255F3F4F4F4F5F4F2E8F32
:103480003F8F48A359A30190F081E02D29E130E05E
:10349000AE014F5F5F4F6E8D7F8D88A199A1099519
:1034A000882309F2CE0101960E943E247C01CE01C0
:1034B00004960E943E246C01BB81BAA7EE81EAA368
:1034C000CE0107960E943E248E8F9F8FCE010996D3
:1034D0000E943E241C01CE010C960E943E248A8F3D
:1034E0009B8FCE0146960E9442244B015C018114C1
:1034F0009104A104B10439F42114310409F493CFE7
:103500004101B12CA12C2A8D3B8D232B09F48BCFAB
:103510004AA1242F30E0AA8DBB8D0E94FC246AA30F
:103520007BA38CA39DA39701215031098E8D9F8D84
:1035300045E0880F991F4A95E1F7820F931FB70165
:103540000E94AC248AA19BA1ACA1BDA18C0D9D1DA4
:10355000A11DB11D860F971FA11DB11DA5019401CD
:10356000281B390B4A0B5B0B2A8F3B8F4C8F5D8FCF
:103570008AA5282F30E050E040E06A8D7B8D8C8D4D
:103580009D8D0E94D4242A8F3B8F4C8F5D8F253FC9
:103590009FE039074105510508F445CF253F3F4FCE
:1035A0004105510508F044CF86E0F8018087E6E642
:1035B000F4E080E1DF011D928A95E9F7970150E080
:1035C00040E02BA73CA74DA75EA7D701A50194011A
:1035D0000E940B2560935E0470935F0480936004E7
:1035E0009093610496010E94FC246EA37FA388A798
:1035F00099A7460E571E681E791E4092620450928B
:10360000630460926404709265042A8D3B8D4C8D36
:103610005D8D2E5F3F4F4F4F5F4FD80118968C91B5
:10362000863009F40ACF84E090E0A0E0B0E08A8F11
:103630009B8FAC8FBD8F6A8D7B8D8C8D9D8D0E94F5
:103640009C2460936604709367048093680490934D
:103650006904F0926B04E0926A04AAA5AE9DC001D1
:10366000AF9D900D112490936D0480936C042AA15A
:103670003BA14CA15DA16BA57CA58DA59EA50E943B
:103680009C24DC01CB01840D951DA61DB71D8093E4
:10369000720490937304A0937404B0937504EE8D38
:1036A000FF8D2F01712C612C25E0440C551C661CEC
:1036B000771C2A95D1F7840D951DA61DB71D809303
:1036C0006E0490936F04A0937004B09371040CE5A2
:1036D00014E0C801AE960FB6F894DEBF0FBECDBFA2
:1036E000DF91CF911F910F91FF90EF90DF90CF90DE
:1036F000BF90AF909F908F907F906F905F904F9012
:103700003F902F900895FC01892B11F011821082B7
:103710000895CF93DF93EB01009769F0209749F06C
:1037200028A124FD06C02091290430912A04232BCE
:1037300029F090E080E0DF91CF9108952BE2FB012A
:10374000ABE2B4E001900D922A95E1F790932A0440
:103750008093290410925604109257041092580432
:103760001092590489A19AA190935B0480935A0402
:1037700089E294E0E0CFFC01892B11F011821082E4
:1037800008952F923F924F925F926F927F928F9205
:103790009F92AF92BF92CF92DF92EF92FF920F93E0
:1037A0001F93CF93DF9300D000D000D0CDB7DEB70A
:1037B0008C016B014D835E83892BF9F42FEF3FEF72
:1037C0003A83298389819A8126960FB6F894DEBFC1
:1037D0000FBECDBFDF91CF911F910F91FF90EF9062
:1037E000DF90CF90BF90AF909F908F907F906F9021
:1037F0005F904F903F902F900895672BF9F28D8145
:103800009E81892BD9F2D8019D968D909D90AD9087
:10381000BC90D09795968D919D910D90BC91A02DC7
:103820009A828982B501A401ED81FE814E0F5F1F4E
:10383000611D711D84179507A607B70748F49C0101
:10384000281939093E832D838815990509F4B5C0D7
:10385000D801ED91FC91119720883188D196ED9097
:10386000FC90D297E114F104F9F49396ED90FC905A
:10387000E114F10481F4E1E0F0E0FA83E9838928BE
:103880008A288B2811F41A82198229813A8131956C
:103890002195310995CF2101712C612C811491045E
:1038A000A104B10409F047C03101B1E06B1A7108FD
:1038B000E981FA816E227F228D809E80D8014D9011
:1038C0005C90B701C2010E944217462F572FBC01DE
:1038D000C1018619970954018815990508F45C01FE
:1038E000DB01CA01860D971DA11DB11D89839A8335
:1038F000AB83BC83D201ED91FC910190F081E02D6E
:103900009501A60169817A818B819C81099581113C
:103910001DC0ED81FE81E819F909FA83E98352CFD0
:1039200084189508A608B708B7010E948A157C017B
:10393000892B09F443CFD8018D919C91841495046F
:10394000A604B70468F7B0CF4201B8CFCA0CDB1C9D
:1039500024014A185B08F80185A596A5A7A5B0A97A
:103960008A0D9B1DA11DB11D85A796A7A7A7B0AB6A
:10397000C501860D971D82159305A0F0B7018081C2
:1039800091810E948A157C01892B51F4D801D2962D
:103990001C921E92D197ED81FE81EA0DFB1DBBCFDB
:1039A000712C612CD801D296FC92EE92D1974114E1
:1039B000510451F6ED81FE81B0CF1A82198202CFF7
:1039C0002F923F924F925F926F927F928F929F922F
:1039D000AF92BF92CF92DF92EF92FF920F931F931D
:1039E000CF93DF93CDB7DEB728970FB6F894DEBF3D
:1039F0000FBECDBF8F8398876B0149835A838F8118
:103A00009885892BD9F48FEF9FEF28960FB6F894FD
:103A1000DEBF0FBECDBFDF91CF911F910F91FF9001
:103A2000EF90DF90CF90BF90AF909F908F907F905E
:103A30006F905F904F903F902F900895672B19F3F0
:103A4000A981BA81AB2BF9F2EF81F88545A556A57E
:103A500067A570A985A196A1A7A1B0A58417950710
:103A6000A607B70780F280819181DC0150962D90E6
:103A70003C9001A912A97101B1E0EB1AF108E4220E
:103A8000F5220115110559F503A114A10115110520
:103A9000A9F4452B462B472B09F0B5CF41E050E068
:103AA00070E060E00E9451168C01EF81F88594A3CC
:103AB00083A3892B19F490E080E0A7CFAF81B8856C
:103AC0009D968D909D90AD90BC90D0972101712CCA
:103AD000612C81149104A104B10409F0ABC0A98048
:103AE000BA80EF81F88560807180B801C3010E94BF
:103AF0004217462F572FBC01C1018E199F0945015E
:103B00008A159B0508F44C01DB01CA018E0D9F1D2F
:103B1000A11DB11D8B839C83AD83BE83D301ED9129
:103B2000FC910480F581E02D9401A6016B817C81DC
:103B30008D819E8109958823A9F1C80CD91CA818EC
:103B4000B908EF81F88585A596A5A7A5B0A9880D28
:103B5000991DA11DB11D85A796A7A7A7B0AB8E0C77
:103B60009F1C8214930408F474C0B8018081918171
:103B70000E948A157C01009709F068C0A114B10465
:103B800069F041E050E0B801AF81B8858D919C911A
:103B90000E9451168C01892B09F05BC0EF81F885DA
:103BA00012AA11AAEF81F88585A596A5A7A5B0A9A7
:103BB000C5A0D6A0E7A0F0A4C816D906EA06FB0661
:103BC000C0F485A396A3A7A3B0A781919191BF014B
:103BD0000E948E1881110DC0AF81B8859D96AD9061
:103BE000BC909E97AC18BD08FD01C5A6D6A6E7A659
:103BF000F0AA89819A818A199B0907CF84189508B0
:103C0000A608B708B8010E948A150097E9F4811444
:103C10009104A104B10409F0F6CE41E050E0B801EE
:103C2000EF81F885808191810E9451168C01892B4A
:103C300009F441CFAF81B8858D919C91841495048E
:103C4000A604B704D8F64BCF8C01F4CF8C01F12C2D
:103C5000E12CAF81B885D2961C930E93D197A11415
:103C6000B10409F03ECF9ECF2F923F924F925F92C8
:103C70006F927F928F929F92AF92BF92CF92DF927C
:103C8000EF92FF920F931F93CF93DF9300D000D05A
:103C900000D0CDB7DEB71C016A017B010097D1F4DB
:103CA00080E026960FB6F894DEBF0FBECDBFDF9141
:103CB000CF911F910F91FF90EF90DF90CF90BF9029
:103CC000AF909F908F907F906F905F904F903F90BC
:103CD0002F900895DC0193960D911C91011511050B
:103CE00031F4C114D104E104F10409F460C0D1013C
:103CF000ED91FC918088918826013701B12CA12C8F
:103D0000F1018081918184149504A604B70408F41C
:103D100060C00115110539F5D501C401840D951D4B
:103D2000A61DB71D9C01AD01215031094109510962
:103D30002B833C834D835E83CA01B901A5019401A5
:103D40000E94D424A901B801D1018D919C910E94B7
:103D50005116009709F4A4CF0115110521F4F101C2
:103D600094A383A38C01D1019596CD92DD92ED921F
:103D7000FC929897C114D104E104F10421F49496C3
:103D80001C921E929397F10181919191BF010E9423
:103D90008E18882309F484CFC114D104E104F104FE
:103DA00021F5B801F101808191810E94D515F101C1
:103DB00085A596A5A7A5B0A9C816D906EA06FB064B
:103DC00030F4C5A6D6A6E7A6F0AA12AA11AA81E0E9
:103DD00068CFB8010E948A15009709F49DCF481852
:103DE00059086A087B088C018BCF84149504A604BB
:103DF000B704E8F2D101AD90BC90A114B104B9F2BE
:103E000002301105A0F2B801C5010E948A154C01CB
:103E10008FEF9FEF9A83898330E020E0000F111F1E
:103E2000221F331FF50186819781A085B185B901D5
:103E3000A801480F591F6A1F7B1F4B835C836D834A
:103E40007E830190F081E02D0480F581E02D22E059
:103E500030E0AE014F5F5F4F6B817C818D819E8131
:103E60000995882309F4A3CF8114910409F49FCF05
:103E7000B401C5019ACFCF92DF92EF92FF920F93D8
:103E80001F93CF93DF93EC018B01892B11F480E01A
:103E900023C061157105D9F3413039F1423099F1F0
:103EA0004111F5CFFB01C080D180E280F3808DA16C
:103EB0009EA1AFA1B8A58C159D05AE05BF0540F12B
:103EC000CDA6DEA6EFA6F8AA1AAA19AAF801C08202
:103ED000D182E282F38281E0DF91CF911F910F9135
:103EE000FF90EF90DF90CF900895CDA4DEA4EFA4D3
:103EF000F8A8F80180819181A281B381C80ED91EF2
:103F0000EA1EFB1ED4CFCDA0DEA0EFA0F8A4F1CF17
:103F1000B701A601CE010E94341E8111D1CFB7CFC7
:103F2000CF93DF939B01009761F16115710591F0CB
:103F3000FB0140A144FF0EC04091C7035091C8034C
:103F4000452B59F04091F8035091F903C8EFD3E0A5
:103F5000452B29F090E080E014C0C7ECD3E0DE01EF
:103F600012964BE2F90101900D924A95E1F799837F
:103F70008883F90181A192A19EA78DA718AA1FA6E7
:103F8000CE01DF91CF910895FC01892B11F01182B0
:103F900010820895FC01892B41F083A194A196A77A
:103FA00085A710AA17A681E0089580E008952F92B2
:103FB0003F924F925F926F927F928F929F92AF92B9
:103FC000BF92CF92DF92EF92FF920F931F93CF9306
:103FD000DF93CDB7DEB7AA970FB6F894DEBF0FBE5A
:103FE000CDBF5C01FB010097A1F0EF2B91F0DC014C
:103FF0004D905C90D20150962D903C90DC019F96A4
:104000008D919C91D0978215930528F0C5010E944F
:10401000CA1F80E076C09D968D909C90AE014D5D4C
:104020005F4F24E0DA011D922A95E9F72BE2DB01CC
:104030001D922A95E9F77AA369A38114910439F4B2
:10404000F2012288338826893789221A330A3C01F3
:104050008EA181114CC08101061917096301F12C51
:10406000E12C8114910409F065C0F20186899789D9
:10407000A08DB18DA7019301280F391F4A1F5B1F27
:104080002FA338A749A75AA71CA21BA2D201ED91C2
:10409000FC910280F381E02D9E012F5D3F4F69016D
:1040A0008BE7E82E84E1F82E20E230E0AE014F5F8E
:1040B0005F4F6FA178A589A59AA50995882309F175
:1040C0008BA19CA1680E791E6214730408F4C0CF02
:1040D000B401C2010E948A154C0190E080E0811475
:1040E000910409F0B4CF8EA1882309F48FCFD501B4
:1040F0009E969C928E929D97D0967C926E929F9760
:104100008EA1AA960FB6F894DEBF0FBECDBFDF9189
:10411000CF911F910F91FF90EF90DF90CF90BF90C4
:10412000AF909F908F907F906F905F904F903F9057
:104130002F900895B401C2010E944217DC01CB0107
:104140008C0D9D1DAE1DBF1D8FA398A7A9A7BAA753
:104150009BCF8F929F92AF92BF92CF92DF92EF92BE
:10416000FF920F931F93CF93DF935C014B018A0162
:10417000892B09F476C06115710509F472C0FB0141
:104180008081882309F46DC0452B09F46AC08F3201
:1041900019F4FFEF8F1A9F0A8BE2F80111928A95AA
:1041A000E9F780E1F80180A3F401808181110EC05C
:1041B00081E0DF91CF911F910F91FF90EF90DF9001
:1041C000CF90BF90AF909F908F900895B801C50198
:1041D0000E94901F7C01892B09F443C06FE270E0BC
:1041E000C4010E942625EC01009781F0C82EC81852
:1041F0002196D12CB801C7010E94D71F811112C08E
:10420000E401C7010E94C41F4E01CECFE401099012
:104210000020E9F72197C819D909CC2EC80DD92D4E
:10422000D11DE7CFF80101900020E9F73197E01B9D
:10423000F10BEC15FD05F1F6A601B801C4010E94D1
:104240003A25892BB9F6C7010E94C41FC80CD91C96
:10425000F6018081882309F4ABCFF80180A184FDA9
:1042600002C080E0A6CFF12CE12CCBCFCF92DF9221
:10427000EF92FF920F931F93CF93DF938C016B010B
:10428000EA01892B11F480E019C061157105D9F399
:10429000FB0180818823B9F32097A9F3BE01C801EF
:1042A0000E94D71F882399F0BE01C6010E943125C4
:1042B000892BA1F7C8010E94CA1F82E0DF91CF912C
:1042C0001F910F91FF90EF90DF90CF900895F8012C
:1042D000E080F1808BE2FE0111928A95E9F74FE1CF
:1042E00050E0B601CE010E94482540E050E0BA01FE
:1042F000E114F10451F0B8016D5D7F4FAE01C701CB
:104300000E94B217462F572FBC014FA358A769A789
:104310007AA7452B462B472B09F4B5CFBE01C70121
:104320000E948E18982F81E09111C8CFACCFDF92F8
:10433000EF92FF920F931F93CF93DF93CDB7DEB72A
:1043400060970FB6F894DEBF0FBECDBF8C017B0126
:10435000892B09F469C06115710509F465C0DB0199
:1043600097968D919D910D90BC91A02D8D879E87E4
:10437000AF87B88B892B8A2B8B2B09F455C085EE20
:10438000D82ED801ED91FC910190F081E02D2CE028
:1043900030E0AE014F5F5F4F6D857E858F859889D8
:1043A0000995882309F440C0D982D801ED91FC9188
:1043B0000480F581E02D2CE030E0AE014F5F5F4FCF
:1043C0006D857E858F8598890995882369F18C850F
:1043D0008F3061F48D859E85AF85B8898096A11D4B
:1043E000B11D8D879E87AF87B88BCBCFD7019196B4
:1043F0006D917C9181E06115710541F0C8010E94C9
:10440000D51591E0811101C090E0892F60960FB61B
:10441000F894DEBF0FBECDBFDF91CF911F910F91FA
:10442000FF90EF90DF90089580E0F0CFDF92EF9261
:10443000FF920F931F93CF93DF93CDB7DEB7AB9768
:104440000FB6F894DEBF0FBECDBF7C018B01CA0151
:10445000B901E114F10481F4D12C8D2DAB960FB686
:10446000F894DEBF0FBECDBFDF91CF911F910F91AA
:10447000FF90EF90DF9008950115110569F3009703
:1044800059F32115310521F0F9012081222321F36F
:10449000FC01208131812E153F05F1F66115710572
:1044A00009F4B801AE014F5F5F4F0E9436218823A7
:1044B00099F2F80180A189A381A192A19BA38AA36B
:1044C00083A194A1A5A1B6A18CA39DA3AEA3BFA3D4
:1044D000BE016F5F7F4FC7010E948E18D82E8111D9
:1044E00007C0BE016F5F7F4FC7010E949721B5CF04
:1044F000F80112A211A2B801C7010E9497218823D6
:1045000009F4AACF8BE2FE013196D80101900D92F9
:104510008A95E1F7DD24D394A0CF8F929F92AF923A
:10452000BF92CF92DF92EF92FF920F931F93CF93A0
:10453000DF9300D000D000D0CDB7DEB75C014B01D7
:104540004D835E83892BA9F410E0812F26960FB648
:10455000F894DEBF0FBECDBFDF91CF911F910F91B9
:10456000FF90EF90DF90CF90BF90AF909F908F9093
:1045700008956115710541F3FB018081882321F3C2
:104580002D813E81232B01F36D817E81C5010E9427
:10459000D71F811149C0F501E080F18041E050E072
:1045A00070E060E0C7010E9451166C01009761F253
:1045B000BC01C7010E9479178BE2ED81FE81119247
:1045C0008A95E9F780E1ED81FE8180A3F701A0895A
:1045D000B1899601225031090E94FC2469837A83B3
:1045E0008B839C8382899389A489B58929813A81A7
:1045F0004B815C81820F931FA41FB51FED81FE814B
:1046000087A390A7A1A7B2A70EE20083D2A2C1A25E
:10461000BF01C7010E948E18182F811111C0B60169
:10462000C7010E94D51591CF6D817E81C4010E9482
:104630003125892B09F0A8CFC5010E94CA1F84CF5C
:10464000ED81FE8187A190A5A1A5B2A58096A11DAF
:10465000B11D87A390A7A1A7B2A70183F50183A1EC
:1046600094A1ED81FE8192A381A3BF01C7010E94A5
:104670008E18182F882399F24FE150E0B4018D81F4
:104680009E810E944825ED81FE81D2A2C1A240E018
:1046900050E0BA01E114F10451F0B5016D5D7F4FB6
:1046A000AF01C7010E94B217462F572FBC01ED8101
:1046B000FE8147A350A761A772A7452B462B472B26
:1046C00029F4B601C7010E94D5153ECF6D817E81C8
:1046D000C7010E948E18182F882309F4A0CF11E07B
:1046E00034CFCF93DF9300D000D0CDB7DEB7FC013D
:1046F000892BF9F022853385448555855695479554
:10470000379527952250310941095109A089B1896E
:104710000E940B2569837A838B839C8369817A81CC
:104720008B819C810F900F900F900F90DF91CF9114
:10473000089519821A821B821C82F0CF2F923F9219
:104740004F925F926F927F928F929F92AF92BF92A1
:10475000CF92DF92EF92FF920F931F93CF93DF934D
:10476000CDB7DEB7A8970FB6F894DEBF0FBECDBFAA
:104770001C01892B09F51DA21EA21FA218A66DA15E
:104780007EA18FA198A5A8960FB6F894DEBF0FBEA4
:10479000CDBFDF91CF911F910F91FF90EF90DF90F0
:1047A000CF90BF90AF909F908F907F906F905F90D1
:1047B0004F903F902F9008951AA219A280E290E0A6
:1047C0009CA38BA3D10116968D919D910D90BC91C8
:1047D000A02D8DA39EA3AFA3B8A7F101428453845B
:1047E00064847584411451046104710461F429A145
:1047F0003AA1F101A089B1890E94FC246DA37EA396
:104800008FA398A7BCCF53014201FEEF4F16FFEFD5
:104810005F066104710430F09EEF892E99249A940A
:10482000A12CB12CD101ED91FC910280F381E02DFE
:10483000CE0181966C0181E5E82E84E1F82E840199
:1048400020E230E0AE014F5F5F4F6DA17EA18FA1EE
:1048500098A50995882309F48ECF8DA19EA1AFA1BB
:10486000B8A5880D991DAA1DBB1D8DA39EA3AFA33E
:10487000B8A7481859086A087B08B4CFFC018081A2
:1048800091810895CF93DF9300D000D0CDB7DEB7EC
:10489000FC012081318142815381CA01B9010F900D
:1048A0000F900F900F90DF91CF910895FC017183CD
:1048B00060830895FC01408351836283738308956C
:1048C0000E9443038BE790E09093840480938304D9
:1048D0000E942B0F8CE990E09093890080938800D0
:1048E0008091810088608093810080916F00826058
:1048F00080936F008091810085608093810078941F
:1049000082E00E94090D8FE59AEE0197F1F700C051
:10491000000064E670E08AE090E00E94F70C8AE212
:1049200091E09F938F930E9487250F900F9088E3CB
:1049300091E00E943E0FFBCFDB018F939F930E947B
:104940000B25BF91AF91A29F800D911DA39F900D4C
:10495000B29F900D11240895AA1BBB1B51E107C003
:10496000AA1FBB1FA617B70710F0A61BB70B881FFF
:10497000991F5A95A9F780959095BC01CD0108958E
:1049800097FB072E16F4009407D077FD09D00E94FC
:10499000AC2407FC05D03EF4909581959F4F089577
:1049A000709561957F4F0895A1E21A2EAA1BBB1B3B
:1049B000FD010DC0AA1FBB1FEE1FFF1FA217B307EB
:1049C000E407F50720F0A21BB30BE40BF50B661F01
:1049D000771F881F991F1A9469F7609570958095C5
:1049E00090959B01AC01BD01CF010895EE0FFF1F13
:1049F0000590F491E02D0994A29FB001B39FC001EE
:104A0000A39F700D811D1124911DB29F700D811DFA
:104A10001124911D08950E94FC24A59F900DB49F20
:104A2000900DA49F800D911D11240895FB01DC01C0
:104A300002C001900D9241505040D8F70895DC011A
:104A400001C06D9341505040E0F70895FC01819101
:104A5000861721F08823D9F7992708953197CF0138
:104A60000895FB01DC018D91019080190110D9F3AB
:104A7000990B0895FB01DC014150504030F08D91BD
:104A80000190801919F40020B9F7881B990B08953B
:104A9000FB01DC014150504048F001900D92002094
:104AA000C9F701C01D9241505040E0F70895FC0144
:104AB00081E090E00190061609F4CF010020D1F7C3
:104AC00001970895BB274A3031F4992322F4BDE2BF
:104AD000909581959F4F0C946E25BB27FB01552720
:104AE000AA27880F991FAA1FA41710F0A41B83954B
:104AF0005051B9F7A05DAA3308F0A95DA1930097C2
:104B000079F7B111B1931192CB010C94AA27B0E0BF
:104B1000A0E0EDE8F5E20C945828AE014B5F5F4F42
:104B2000FA0161917191AF018091A6049091A7045F
:104B30000E94C925E2E00C9474280F931F93CF9331
:104B4000DF93E091A604F091A704238110E000E038
:104B500021FD0EC00FEF1FEFC801DF91CF911F9114
:104B60000F9108950995892B11F00FEF1FEFCE01DA
:104B7000EC0189916091A6047091A704DB0118965D
:104B8000ED91FC918111EECF8AE00995892B21F3FB
:104B9000E1CFABE0B0E0EFECF5E20C9448287C010B
:104BA0003B018A01FC0117821682838181FFB9C112
:104BB0009AE0292ECE0101965C01F7019381F30161
:104BC00093FD859193FF81913F01882309F446C1AC
:104BD000853239F493FD859193FF81913F018532B0
:104BE00029F4B70190E00E94BA27E7CF912C412C1D
:104BF000512CFFE1F51538F08B3209F188F4803241
:104C000001F1833221F157FC3AC020ED280F2A3000
:104C100040F556FE1FC0929C200D1124922E06C016
:104C20008D3291F0803379F7689450F8F30193FD59
:104C3000859193FF81913F018111DBCF20C0689462
:104C400051F8689452F8F2CF689453F8EFCF689413
:104C500054F8ECCF429C200D1124422E689455F854
:104C6000E5CF8E3229F456FCF9C0689456F8DECFB1
:104C70008C3619F4689457F8D9CF8836B9F2982F42
:104C80009F7D95549330C0F08336A1F18337C1F1F5
:104C9000833509F05BC0F801C190D1908F01692D77
:104CA00070E056FC02C06FEF7FEFC6010E949427B0
:104CB0004C01689457F80AC00C5F1F4F2FE32983FB
:104CC00088248394912C6501E89457F853FC04C020
:104CD0004814190409F018F5342C8114910431F5A5
:104CE000332009F46ACFB70180E290E00E94BA272E
:104CF0003A94F6CFF801808189830E5F1F4FE0CF91
:104D0000F801C190D1908F01692D70E056FC02C06E
:104D10006FEF7FEFC6010E949F274C01D5CFB701EF
:104D200080E290E00E94BA274A94D2CFF60157FC65
:104D3000859157FE81916F01B70190E00E94BA27DB
:104D400031103A94F1E08F1A9108C7CF843619F0E8
:104D5000893609F074C0F80157FE6AC061917191FB
:104D6000819191918F01252D2F76D22E97FF09C029
:104D700090958095709561957F4F8F4F9F4F689468
:104D8000D7F82AE030E0A5010E94EA27C82ECA1809
:104D90008C2C5D2CD6FE0CC0E89450F8C91440F45D
:104DA000D4FE05C0D2FC03C0FD2DFE7E5F2E892CF3
:104DB00054FE8FC0FE01EC0DF11D8081803309F09F
:104DC00081C0252D297E522E852D8870382E53FCCA
:104DD0008FC050FE89C09C2C841418F44C0C942C69
:104DE000981854FE8BC0B70180E390E00E94BA2768
:104DF00052FE09C088E790E051FE02C088E590E0CD
:104E0000B7010E94BA27C91408F484C0CA94D12CEF
:104E10009FEFC91AD90ACA0CDB1CF60182916F01F7
:104E2000B70190E00E94BA27AC14BD04B1F758CF87
:104E300061917191072E000C880B990B93CFD52CA3
:104E4000E894D4F82AE030E0853739F1952D997F40
:104E5000D92E8F3601F148F48835A9F0F701868103
:104E600097812B96E2E10C946428803749F08837CB
:104E7000A9F7D4FE02C06894D2F820E130E00DC05A
:104E80006894D4F8F6CF54FE03C0E92FE660DE2E16
:104E900020E132E002C028E030E0F801D7FE0DC08A
:104EA00061917191819191918F01A5010E94EA27F1
:104EB000C82ECA18E894D7F86BCF6191719190E031
:104EC00080E0F2CF52FC02C083947ECF839483941F
:104ED0007BCF852D867809F477CFF6CFB70180E2B6
:104EE00090E00E94BA2783948414C0F3312C79CFC8
:104EF000342C3818841408F474CFF8CF852D8678B4
:104F000009F481CF8BE251FE80E257FC8DE2B701BC
:104F100090E077CFB70180E390E00E94BA279A949F
:104F200072CF8FEF9FEF9DCFFC01059061507040D5
:104F30000110D8F7809590958E0F9F1F0895FC0162
:104F40006150704001900110D8F7809590958E0FB8
:104F50009F1F0895DC01FC01672F71917723E1F712
:104F6000329704C07C916D9370836291AE17BF0736
:104F7000C8F308950F931F93CF93DF93182F092F32
:104F8000EB018B8181FD09C01FEF0FEF812F902F67
:104F9000DF91CF911F910F91089582FF14C02E8150
:104FA0003F818C819D81281739073CF4E881F98184
:104FB000CF0101969983888310838E819F8101960A
:104FC0009F838E83E3CFE885F985812F0995892B0F
:104FD000A1F3DACFFA01AA27283051F1203181F16B
:104FE000E8946F936E7F6E5F7F4F8F4F9F4FAF4FF1
:104FF000B1E03ED0B4E03CD0670F781F891F9A1F04
:10500000A11D680F791F8A1F911DA11D6A0F711DB7
:10501000811D911DA11D20D009F468943F912AE0C3
:10502000269F11243019305D3193DEF6CF010895AB
:10503000462F4770405D4193B3E00FD0C9F7F6CFDC
:10504000462F4F70405D4A3318F0495D31FD4052A4
:10505000419302D0A9F7EACFB4E0A695979587953A
:1050600077956795BA95C9F7009761057105089519
:105070009B01AC010A2E06945795479537952795C5
:10508000BA95C9F7620F731F841F951FA01D08955D
:105090002F923F924F925F926F927F928F929F9248
:1050A000AF92BF92CF92DF92EF92FF920F931F9336
:1050B000CF93DF93CDB7DEB7CA1BDB0B0FB6F894E7
:1050C000DEBF0FBECDBF09942A88398848885F8427
:1050D0006E847D848C849B84AA84B984C884DF8098
:1050E000EE80FD800C811B81AA81B981CE0FD11D7C
:1050F0000FB6F894DEBF0FBECDBFED010895F89452
:10510000FFCFDD12FA12FA12FF12FF12FF12FF1286
:10511000FF1204130613061306130613251329138F
:105120000100000002000000002D0D00000000F052
:10513000004001F000400100000002000000002DCE
:105140000D000000005465737400526F6D616E2095
:105150004772C3B66E65720048616C6C6F006D6F0C
:105160006465202D2000636F6E7374616E74207609
:105170006F6C74616765007365740030302E303079
:10518000760061637475616C0A0030302E30300037
:1051900030302E3030610061637475616C00010342
:0C51A0000507090E10121416181C1E0042
:00000001FF
